{
    "_format": "hh-sol-artifact-1",
    "contractName": "badWabbitzNft",
    "sourceName": "contracts/badWabbitzNft.sol",
    "abi": [
        {
            "inputs": [],
            "stateMutability": "payable",
            "type": "constructor"
        },
        {
            "anonymous": false,
            "inputs": [
                {
                    "indexed": true,
                    "internalType": "address",
                    "name": "owner",
                    "type": "address"
                },
                {
                    "indexed": true,
                    "internalType": "address",
                    "name": "approved",
                    "type": "address"
                },
                {
                    "indexed": true,
                    "internalType": "uint256",
                    "name": "tokenId",
                    "type": "uint256"
                }
            ],
            "name": "Approval",
            "type": "event"
        },
        {
            "anonymous": false,
            "inputs": [
                {
                    "indexed": true,
                    "internalType": "address",
                    "name": "owner",
                    "type": "address"
                },
                {
                    "indexed": true,
                    "internalType": "address",
                    "name": "operator",
                    "type": "address"
                },
                {
                    "indexed": false,
                    "internalType": "bool",
                    "name": "approved",
                    "type": "bool"
                }
            ],
            "name": "ApprovalForAll",
            "type": "event"
        },
        {
            "anonymous": false,
            "inputs": [
                {
                    "indexed": true,
                    "internalType": "address",
                    "name": "previousOwner",
                    "type": "address"
                },
                {
                    "indexed": true,
                    "internalType": "address",
                    "name": "newOwner",
                    "type": "address"
                }
            ],
            "name": "OwnershipTransferred",
            "type": "event"
        },
        {
            "anonymous": false,
            "inputs": [
                {
                    "indexed": true,
                    "internalType": "address",
                    "name": "from",
                    "type": "address"
                },
                {
                    "indexed": true,
                    "internalType": "address",
                    "name": "to",
                    "type": "address"
                },
                {
                    "indexed": true,
                    "internalType": "uint256",
                    "name": "tokenId",
                    "type": "uint256"
                }
            ],
            "name": "Transfer",
            "type": "event"
        },
        {
            "inputs": [
                {
                    "internalType": "address",
                    "name": "to",
                    "type": "address"
                },
                {
                    "internalType": "uint256",
                    "name": "tokenId",
                    "type": "uint256"
                }
            ],
            "name": "approve",
            "outputs": [],
            "stateMutability": "nonpayable",
            "type": "function"
        },
        {
            "inputs": [
                {
                    "internalType": "address",
                    "name": "owner",
                    "type": "address"
                }
            ],
            "name": "balanceOf",
            "outputs": [
                {
                    "internalType": "uint256",
                    "name": "",
                    "type": "uint256"
                }
            ],
            "stateMutability": "view",
            "type": "function"
        },
        {
            "inputs": [
                {
                    "internalType": "uint256",
                    "name": "tokenId",
                    "type": "uint256"
                }
            ],
            "name": "getApproved",
            "outputs": [
                {
                    "internalType": "address",
                    "name": "",
                    "type": "address"
                }
            ],
            "stateMutability": "view",
            "type": "function"
        },
        {
            "inputs": [
                {
                    "internalType": "address",
                    "name": "owner",
                    "type": "address"
                },
                {
                    "internalType": "address",
                    "name": "operator",
                    "type": "address"
                }
            ],
            "name": "isApprovedForAll",
            "outputs": [
                {
                    "internalType": "bool",
                    "name": "",
                    "type": "bool"
                }
            ],
            "stateMutability": "view",
            "type": "function"
        },
        {
            "inputs": [],
            "name": "isPublicMintEnabled",
            "outputs": [
                {
                    "internalType": "bool",
                    "name": "",
                    "type": "bool"
                }
            ],
            "stateMutability": "view",
            "type": "function"
        },
        {
            "inputs": [],
            "name": "maxPerWallet",
            "outputs": [
                {
                    "internalType": "uint256",
                    "name": "",
                    "type": "uint256"
                }
            ],
            "stateMutability": "view",
            "type": "function"
        },
        {
            "inputs": [],
            "name": "maxSupply",
            "outputs": [
                {
                    "internalType": "uint256",
                    "name": "",
                    "type": "uint256"
                }
            ],
            "stateMutability": "view",
            "type": "function"
        },
        {
            "inputs": [
                {
                    "internalType": "uint256",
                    "name": "quantity_",
                    "type": "uint256"
                }
            ],
            "name": "mint",
            "outputs": [],
            "stateMutability": "payable",
            "type": "function"
        },
        {
            "inputs": [],
            "name": "mintPrice",
            "outputs": [
                {
                    "internalType": "uint256",
                    "name": "",
                    "type": "uint256"
                }
            ],
            "stateMutability": "view",
            "type": "function"
        },
        {
            "inputs": [],
            "name": "name",
            "outputs": [
                {
                    "internalType": "string",
                    "name": "",
                    "type": "string"
                }
            ],
            "stateMutability": "view",
            "type": "function"
        },
        {
            "inputs": [],
            "name": "owner",
            "outputs": [
                {
                    "internalType": "address",
                    "name": "",
                    "type": "address"
                }
            ],
            "stateMutability": "view",
            "type": "function"
        },
        {
            "inputs": [
                {
                    "internalType": "uint256",
                    "name": "tokenId",
                    "type": "uint256"
                }
            ],
            "name": "ownerOf",
            "outputs": [
                {
                    "internalType": "address",
                    "name": "",
                    "type": "address"
                }
            ],
            "stateMutability": "view",
            "type": "function"
        },
        {
            "inputs": [],
            "name": "renounceOwnership",
            "outputs": [],
            "stateMutability": "nonpayable",
            "type": "function"
        },
        {
            "inputs": [
                {
                    "internalType": "address",
                    "name": "from",
                    "type": "address"
                },
                {
                    "internalType": "address",
                    "name": "to",
                    "type": "address"
                },
                {
                    "internalType": "uint256",
                    "name": "tokenId",
                    "type": "uint256"
                }
            ],
            "name": "safeTransferFrom",
            "outputs": [],
            "stateMutability": "nonpayable",
            "type": "function"
        },
        {
            "inputs": [
                {
                    "internalType": "address",
                    "name": "from",
                    "type": "address"
                },
                {
                    "internalType": "address",
                    "name": "to",
                    "type": "address"
                },
                {
                    "internalType": "uint256",
                    "name": "tokenId",
                    "type": "uint256"
                },
                {
                    "internalType": "bytes",
                    "name": "_data",
                    "type": "bytes"
                }
            ],
            "name": "safeTransferFrom",
            "outputs": [],
            "stateMutability": "nonpayable",
            "type": "function"
        },
        {
            "inputs": [
                {
                    "internalType": "address",
                    "name": "operator",
                    "type": "address"
                },
                {
                    "internalType": "bool",
                    "name": "approved",
                    "type": "bool"
                }
            ],
            "name": "setApprovalForAll",
            "outputs": [],
            "stateMutability": "nonpayable",
            "type": "function"
        },
        {
            "inputs": [
                {
                    "internalType": "string",
                    "name": "baseTokenUri_",
                    "type": "string"
                }
            ],
            "name": "setBaseTokenUri",
            "outputs": [],
            "stateMutability": "nonpayable",
            "type": "function"
        },
        {
            "inputs": [
                {
                    "internalType": "bool",
                    "name": "isPublicMintEnabled_",
                    "type": "bool"
                }
            ],
            "name": "setIsPublicMintEnabled",
            "outputs": [],
            "stateMutability": "nonpayable",
            "type": "function"
        },
        {
            "inputs": [
                {
                    "internalType": "bytes4",
                    "name": "interfaceId",
                    "type": "bytes4"
                }
            ],
            "name": "supportsInterface",
            "outputs": [
                {
                    "internalType": "bool",
                    "name": "",
                    "type": "bool"
                }
            ],
            "stateMutability": "view",
            "type": "function"
        },
        {
            "inputs": [],
            "name": "symbol",
            "outputs": [
                {
                    "internalType": "string",
                    "name": "",
                    "type": "string"
                }
            ],
            "stateMutability": "view",
            "type": "function"
        },
        {
            "inputs": [
                {
                    "internalType": "uint256",
                    "name": "tokenId_",
                    "type": "uint256"
                }
            ],
            "name": "tokenURI",
            "outputs": [
                {
                    "internalType": "string",
                    "name": "",
                    "type": "string"
                }
            ],
            "stateMutability": "view",
            "type": "function"
        },
        {
            "inputs": [],
            "name": "totalSupply",
            "outputs": [
                {
                    "internalType": "uint256",
                    "name": "",
                    "type": "uint256"
                }
            ],
            "stateMutability": "view",
            "type": "function"
        },
        {
            "inputs": [
                {
                    "internalType": "address",
                    "name": "from",
                    "type": "address"
                },
                {
                    "internalType": "address",
                    "name": "to",
                    "type": "address"
                },
                {
                    "internalType": "uint256",
                    "name": "tokenId",
                    "type": "uint256"
                }
            ],
            "name": "transferFrom",
            "outputs": [],
            "stateMutability": "nonpayable",
            "type": "function"
        },
        {
            "inputs": [
                {
                    "internalType": "address",
                    "name": "newOwner",
                    "type": "address"
                }
            ],
            "name": "transferOwnership",
            "outputs": [],
            "stateMutability": "nonpayable",
            "type": "function"
        },
        {
            "inputs": [
                {
                    "internalType": "address",
                    "name": "",
                    "type": "address"
                }
            ],
            "name": "walletMints",
            "outputs": [
                {
                    "internalType": "uint256",
                    "name": "",
                    "type": "uint256"
                }
            ],
            "stateMutability": "view",
            "type": "function"
        },
        {
            "inputs": [],
            "name": "withdraw",
            "outputs": [],
            "stateMutability": "nonpayable",
            "type": "function"
        },
        {
            "inputs": [],
            "name": "withdrawWallet",
            "outputs": [
                {
                    "internalType": "address payable",
                    "name": "",
                    "type": "address"
                }
            ],
            "stateMutability": "view",
            "type": "function"
        }
    ],
    "bytecode": "0x60806040526040518060400160405280600d81526020017f6261645761626269747a4e6674000000000000000000000000000000000000008152506040518060400160405280600381526020017f4257420000000000000000000000000000000000000000000000000000000000815250816000908051906020019062000088929190620001bf565b508060019080519060200190620000a1929190620001bf565b505050620000c4620000b8620000f160201b60201c565b620000f960201b60201c565b66470de4df82000060078190555060006008819055506103e86009819055506003600a81905550620002d4565b600033905090565b6000600660009054906101000a900473ffffffffffffffffffffffffffffffffffffffff16905081600660006101000a81548173ffffffffffffffffffffffffffffffffffffffff021916908373ffffffffffffffffffffffffffffffffffffffff1602179055508173ffffffffffffffffffffffffffffffffffffffff168173ffffffffffffffffffffffffffffffffffffffff167f8be0079c531659141344cd1fd0a4f28419497f9722a3daafe3b4186f6b6457e060405160405180910390a35050565b828054620001cd906200029e565b90600052602060002090601f016020900481019282620001f157600085556200023d565b82601f106200020c57805160ff19168380011785556200023d565b828001600101855582156200023d579182015b828111156200023c5782518255916020019190600101906200021f565b5b5090506200024c919062000250565b5090565b5b808211156200026b57600081600090555060010162000251565b5090565b7f4e487b7100000000000000000000000000000000000000000000000000000000600052602260045260246000fd5b60006002820490506001821680620002b757607f821691505b60208210811415620002ce57620002cd6200026f565b5b50919050565b61380380620002e46000396000f3fe60806040526004361061019c5760003560e01c806370a08231116100ec578063a22cb4651161008a578063d5abeb0111610064578063d5abeb0114610593578063e985e9c5146105be578063f0293fd3146105fb578063f2fde38b146106385761019c565b8063a22cb46514610504578063b88d4fde1461052d578063c87b56dd146105565761019c565b80638da5cb5b116100c65780638da5cb5b1461046957806395652cfa1461049457806395d89b41146104bd578063a0712d68146104e85761019c565b806370a08231146103ea578063715018a61461042757806385d178f41461043e5761019c565b80632373ac221161015957806342842e0e1161013357806342842e0e1461032e578063453c2310146103575780636352211e146103825780636817c76c146103bf5761019c565b80632373ac22146102c557806323b872dd146102ee5780633ccfd60b146103175761019c565b80630116bc2d146101a157806301ffc9a7146101cc57806306fdde0314610209578063081812fc14610234578063095ea7b31461027157806318160ddd1461029a575b600080fd5b3480156101ad57600080fd5b506101b6610661565b6040516101c3919061217a565b60405180910390f35b3480156101d857600080fd5b506101f360048036038101906101ee9190612201565b610674565b604051610200919061217a565b60405180910390f35b34801561021557600080fd5b5061021e610756565b60405161022b91906122c7565b60405180910390f35b34801561024057600080fd5b5061025b6004803603810190610256919061231f565b6107e8565b604051610268919061238d565b60405180910390f35b34801561027d57600080fd5b50610298600480360381019061029391906123d4565b61086d565b005b3480156102a657600080fd5b506102af610985565b6040516102bc9190612423565b60405180910390f35b3480156102d157600080fd5b506102ec60048036038101906102e7919061246a565b61098b565b005b3480156102fa57600080fd5b5061031560048036038101906103109190612497565b610a24565b005b34801561032357600080fd5b5061032c610a84565b005b34801561033a57600080fd5b5061035560048036038101906103509190612497565b610bd1565b005b34801561036357600080fd5b5061036c610bf1565b6040516103799190612423565b60405180910390f35b34801561038e57600080fd5b506103a960048036038101906103a4919061231f565b610bf7565b6040516103b6919061238d565b60405180910390f35b3480156103cb57600080fd5b506103d4610ca9565b6040516103e19190612423565b60405180910390f35b3480156103f657600080fd5b50610411600480360381019061040c91906124ea565b610caf565b60405161041e9190612423565b60405180910390f35b34801561043357600080fd5b5061043c610d67565b005b34801561044a57600080fd5b50610453610def565b6040516104609190612538565b60405180910390f35b34801561047557600080fd5b5061047e610e15565b60405161048b919061238d565b60405180910390f35b3480156104a057600080fd5b506104bb60048036038101906104b691906125b8565b610e3f565b005b3480156104c957600080fd5b506104d2610ed1565b6040516104df91906122c7565b60405180910390f35b61050260048036038101906104fd919061231f565b610f63565b005b34801561051057600080fd5b5061052b60048036038101906105269190612605565b61113b565b005b34801561053957600080fd5b50610554600480360381019061054f9190612775565b611151565b005b34801561056257600080fd5b5061057d6004803603810190610578919061231f565b6111b3565b60405161058a91906122c7565b60405180910390f35b34801561059f57600080fd5b506105a861122f565b6040516105b59190612423565b60405180910390f35b3480156105ca57600080fd5b506105e560048036038101906105e091906127f8565b611235565b6040516105f2919061217a565b60405180910390f35b34801561060757600080fd5b50610622600480360381019061061d91906124ea565b6112c9565b60405161062f9190612423565b60405180910390f35b34801561064457600080fd5b5061065f600480360381019061065a91906124ea565b6112e1565b005b600b60009054906101000a900460ff1681565b60007f80ac58cd000000000000000000000000000000000000000000000000000000007bffffffffffffffffffffffffffffffffffffffffffffffffffffffff1916827bffffffffffffffffffffffffffffffffffffffffffffffffffffffff1916148061073f57507f5b5e139f000000000000000000000000000000000000000000000000000000007bffffffffffffffffffffffffffffffffffffffffffffffffffffffff1916827bffffffffffffffffffffffffffffffffffffffffffffffffffffffff1916145b8061074f575061074e826113d9565b5b9050919050565b60606000805461076590612867565b80601f016020809104026020016040519081016040528092919081815260200182805461079190612867565b80156107de5780601f106107b3576101008083540402835291602001916107de565b820191906000526020600020905b8154815290600101906020018083116107c157829003601f168201915b5050505050905090565b60006107f382611443565b610832576040517f08c379a00000000000000000000000000000000000000000000000000000000081526004016108299061290b565b60405180910390fd5b6004600083815260200190815260200160002060009054906101000a900473ffffffffffffffffffffffffffffffffffffffff169050919050565b600061087882610bf7565b90508073ffffffffffffffffffffffffffffffffffffffff168373ffffffffffffffffffffffffffffffffffffffff1614156108e9576040517f08c379a00000000000000000000000000000000000000000000000000000000081526004016108e09061299d565b60405180910390fd5b8073ffffffffffffffffffffffffffffffffffffffff166109086114af565b73ffffffffffffffffffffffffffffffffffffffff1614806109375750610936816109316114af565b611235565b5b610976576040517f08c379a000000000000000000000000000000000000000000000000000000000815260040161096d90612a2f565b60405180910390fd5b61098083836114b7565b505050565b60085481565b6109936114af565b73ffffffffffffffffffffffffffffffffffffffff166109b1610e15565b73ffffffffffffffffffffffffffffffffffffffff1614610a07576040517f08c379a00000000000000000000000000000000000000000000000000000000081526004016109fe90612a9b565b60405180910390fd5b80600b60006101000a81548160ff02191690831515021790555050565b610a35610a2f6114af565b82611570565b610a74576040517f08c379a0000000000000000000000000000000000000000000000000000000008152600401610a6b90612b2d565b60405180910390fd5b610a7f83838361164e565b505050565b610a8c6114af565b73ffffffffffffffffffffffffffffffffffffffff16610aaa610e15565b73ffffffffffffffffffffffffffffffffffffffff1614610b00576040517f08c379a0000000000000000000000000000000000000000000000000000000008152600401610af790612a9b565b60405180910390fd5b6000600d60009054906101000a900473ffffffffffffffffffffffffffffffffffffffff1673ffffffffffffffffffffffffffffffffffffffff1647604051610b4890612b7e565b60006040518083038185875af1925050503d8060008114610b85576040519150601f19603f3d011682016040523d82523d6000602084013e610b8a565b606091505b5050905080610bce576040517f08c379a0000000000000000000000000000000000000000000000000000000008152600401610bc590612bdf565b60405180910390fd5b50565b610bec83838360405180602001604052806000815250611151565b505050565b600a5481565b6000806002600084815260200190815260200160002060009054906101000a900473ffffffffffffffffffffffffffffffffffffffff169050600073ffffffffffffffffffffffffffffffffffffffff168173ffffffffffffffffffffffffffffffffffffffff161415610ca0576040517f08c379a0000000000000000000000000000000000000000000000000000000008152600401610c9790612c71565b60405180910390fd5b80915050919050565b60075481565b60008073ffffffffffffffffffffffffffffffffffffffff168273ffffffffffffffffffffffffffffffffffffffff161415610d20576040517f08c379a0000000000000000000000000000000000000000000000000000000008152600401610d1790612d03565b60405180910390fd5b600360008373ffffffffffffffffffffffffffffffffffffffff1673ffffffffffffffffffffffffffffffffffffffff168152602001908152602001600020549050919050565b610d6f6114af565b73ffffffffffffffffffffffffffffffffffffffff16610d8d610e15565b73ffffffffffffffffffffffffffffffffffffffff1614610de3576040517f08c379a0000000000000000000000000000000000000000000000000000000008152600401610dda90612a9b565b60405180910390fd5b610ded60006118b5565b565b600d60009054906101000a900473ffffffffffffffffffffffffffffffffffffffff1681565b6000600660009054906101000a900473ffffffffffffffffffffffffffffffffffffffff16905090565b610e476114af565b73ffffffffffffffffffffffffffffffffffffffff16610e65610e15565b73ffffffffffffffffffffffffffffffffffffffff1614610ebb576040517f08c379a0000000000000000000000000000000000000000000000000000000008152600401610eb290612a9b565b60405180910390fd5b8181600c9190610ecc9291906120bc565b505050565b606060018054610ee090612867565b80601f0160208091040260200160405190810160405280929190818152602001828054610f0c90612867565b8015610f595780601f10610f2e57610100808354040283529160200191610f59565b820191906000526020600020905b815481529060010190602001808311610f3c57829003601f168201915b5050505050905090565b600b60009054906101000a900460ff16610fb2576040517f08c379a0000000000000000000000000000000000000000000000000000000008152600401610fa990612d6f565b60405180910390fd5b60075481610fc09190612dbe565b3414611001576040517f08c379a0000000000000000000000000000000000000000000000000000000008152600401610ff890612e64565b60405180910390fd5b600954816008546110129190612e84565b1115611053576040517f08c379a000000000000000000000000000000000000000000000000000000000815260040161104a90612f26565b60405180910390fd5b600a5481600e60003373ffffffffffffffffffffffffffffffffffffffff1673ffffffffffffffffffffffffffffffffffffffff168152602001908152602001600020546110a19190612e84565b11156110e2576040517f08c379a00000000000000000000000000000000000000000000000000000000081526004016110d990612fb8565b60405180910390fd5b60005b816001101561113757600060016008546110ff9190612e84565b90506008600081548092919061111490612fd8565b9190505550611123338261197b565b50808061112f90612fd8565b9150506110e5565b5050565b61114d6111466114af565b8383611999565b5050565b61116261115c6114af565b83611570565b6111a1576040517f08c379a000000000000000000000000000000000000000000000000000000000815260040161119890612b2d565b60405180910390fd5b6111ad84848484611b06565b50505050565b60606111be82611443565b6111fd576040517f08c379a00000000000000000000000000000000000000000000000000000000081526004016111f49061306d565b60405180910390fd5b600c61120883611b62565b6040516020016112199291906131a9565b6040516020818303038152906040529050919050565b60095481565b6000600560008473ffffffffffffffffffffffffffffffffffffffff1673ffffffffffffffffffffffffffffffffffffffff16815260200190815260200160002060008373ffffffffffffffffffffffffffffffffffffffff1673ffffffffffffffffffffffffffffffffffffffff16815260200190815260200160002060009054906101000a900460ff16905092915050565b600e6020528060005260406000206000915090505481565b6112e96114af565b73ffffffffffffffffffffffffffffffffffffffff16611307610e15565b73ffffffffffffffffffffffffffffffffffffffff161461135d576040517f08c379a000000000000000000000000000000000000000000000000000000000815260040161135490612a9b565b60405180910390fd5b600073ffffffffffffffffffffffffffffffffffffffff168173ffffffffffffffffffffffffffffffffffffffff1614156113cd576040517f08c379a00000000000000000000000000000000000000000000000000000000081526004016113c49061324a565b60405180910390fd5b6113d6816118b5565b50565b60007f01ffc9a7000000000000000000000000000000000000000000000000000000007bffffffffffffffffffffffffffffffffffffffffffffffffffffffff1916827bffffffffffffffffffffffffffffffffffffffffffffffffffffffff1916149050919050565b60008073ffffffffffffffffffffffffffffffffffffffff166002600084815260200190815260200160002060009054906101000a900473ffffffffffffffffffffffffffffffffffffffff1673ffffffffffffffffffffffffffffffffffffffff1614159050919050565b600033905090565b816004600083815260200190815260200160002060006101000a81548173ffffffffffffffffffffffffffffffffffffffff021916908373ffffffffffffffffffffffffffffffffffffffff160217905550808273ffffffffffffffffffffffffffffffffffffffff1661152a83610bf7565b73ffffffffffffffffffffffffffffffffffffffff167f8c5be1e5ebec7d5bd14f71427d1e84f3dd0314c0f7b2291e5b200ac8c7c3b92560405160405180910390a45050565b600061157b82611443565b6115ba576040517f08c379a00000000000000000000000000000000000000000000000000000000081526004016115b1906132dc565b60405180910390fd5b60006115c583610bf7565b90508073ffffffffffffffffffffffffffffffffffffffff168473ffffffffffffffffffffffffffffffffffffffff16148061160757506116068185611235565b5b8061164557508373ffffffffffffffffffffffffffffffffffffffff1661162d846107e8565b73ffffffffffffffffffffffffffffffffffffffff16145b91505092915050565b8273ffffffffffffffffffffffffffffffffffffffff1661166e82610bf7565b73ffffffffffffffffffffffffffffffffffffffff16146116c4576040517f08c379a00000000000000000000000000000000000000000000000000000000081526004016116bb9061336e565b60405180910390fd5b600073ffffffffffffffffffffffffffffffffffffffff168273ffffffffffffffffffffffffffffffffffffffff161415611734576040517f08c379a000000000000000000000000000000000000000000000000000000000815260040161172b90613400565b60405180910390fd5b61173f838383611cc3565b61174a6000826114b7565b6001600360008573ffffffffffffffffffffffffffffffffffffffff1673ffffffffffffffffffffffffffffffffffffffff168152602001908152602001600020600082825461179a9190613420565b925050819055506001600360008473ffffffffffffffffffffffffffffffffffffffff1673ffffffffffffffffffffffffffffffffffffffff16815260200190815260200160002060008282546117f19190612e84565b92505081905550816002600083815260200190815260200160002060006101000a81548173ffffffffffffffffffffffffffffffffffffffff021916908373ffffffffffffffffffffffffffffffffffffffff160217905550808273ffffffffffffffffffffffffffffffffffffffff168473ffffffffffffffffffffffffffffffffffffffff167fddf252ad1be2c89b69c2b068fc378daa952ba7f163c4a11628f55a4df523b3ef60405160405180910390a46118b0838383611cc8565b505050565b6000600660009054906101000a900473ffffffffffffffffffffffffffffffffffffffff16905081600660006101000a81548173ffffffffffffffffffffffffffffffffffffffff021916908373ffffffffffffffffffffffffffffffffffffffff1602179055508173ffffffffffffffffffffffffffffffffffffffff168173ffffffffffffffffffffffffffffffffffffffff167f8be0079c531659141344cd1fd0a4f28419497f9722a3daafe3b4186f6b6457e060405160405180910390a35050565b611995828260405180602001604052806000815250611ccd565b5050565b8173ffffffffffffffffffffffffffffffffffffffff168373ffffffffffffffffffffffffffffffffffffffff161415611a08576040517f08c379a00000000000000000000000000000000000000000000000000000000081526004016119ff906134a0565b60405180910390fd5b80600560008573ffffffffffffffffffffffffffffffffffffffff1673ffffffffffffffffffffffffffffffffffffffff16815260200190815260200160002060008473ffffffffffffffffffffffffffffffffffffffff1673ffffffffffffffffffffffffffffffffffffffff16815260200190815260200160002060006101000a81548160ff0219169083151502179055508173ffffffffffffffffffffffffffffffffffffffff168373ffffffffffffffffffffffffffffffffffffffff167f17307eab39ab6107e8899845ad3d59bd9653f200f220920489ca2b5937696c3183604051611af9919061217a565b60405180910390a3505050565b611b1184848461164e565b611b1d84848484611d28565b611b5c576040517f08c379a0000000000000000000000000000000000000000000000000000000008152600401611b5390613532565b60405180910390fd5b50505050565b60606000821415611baa576040518060400160405280600181526020017f30000000000000000000000000000000000000000000000000000000000000008152509050611cbe565b600082905060005b60008214611bdc578080611bc590612fd8565b915050600a82611bd59190613581565b9150611bb2565b60008167ffffffffffffffff811115611bf857611bf761264a565b5b6040519080825280601f01601f191660200182016040528015611c2a5781602001600182028036833780820191505090505b5090505b60008514611cb757600182611c439190613420565b9150600a85611c5291906135b2565b6030611c5e9190612e84565b60f81b818381518110611c7457611c736135e3565b5b60200101907effffffffffffffffffffffffffffffffffffffffffffffffffffffffffffff1916908160001a905350600a85611cb09190613581565b9450611c2e565b8093505050505b919050565b505050565b505050565b611cd78383611ebf565b611ce46000848484611d28565b611d23576040517f08c379a0000000000000000000000000000000000000000000000000000000008152600401611d1a90613532565b60405180910390fd5b505050565b6000611d498473ffffffffffffffffffffffffffffffffffffffff16612099565b15611eb2578373ffffffffffffffffffffffffffffffffffffffff1663150b7a02611d726114af565b8786866040518563ffffffff1660e01b8152600401611d949493929190613667565b602060405180830381600087803b158015611dae57600080fd5b505af1925050508015611ddf57506040513d601f19601f82011682018060405250810190611ddc91906136c8565b60015b611e62573d8060008114611e0f576040519150601f19603f3d011682016040523d82523d6000602084013e611e14565b606091505b50600081511415611e5a576040517f08c379a0000000000000000000000000000000000000000000000000000000008152600401611e5190613532565b60405180910390fd5b805181602001fd5b63150b7a0260e01b7bffffffffffffffffffffffffffffffffffffffffffffffffffffffff1916817bffffffffffffffffffffffffffffffffffffffffffffffffffffffff191614915050611eb7565b600190505b949350505050565b600073ffffffffffffffffffffffffffffffffffffffff168273ffffffffffffffffffffffffffffffffffffffff161415611f2f576040517f08c379a0000000000000000000000000000000000000000000000000000000008152600401611f2690613741565b60405180910390fd5b611f3881611443565b15611f78576040517f08c379a0000000000000000000000000000000000000000000000000000000008152600401611f6f906137ad565b60405180910390fd5b611f8460008383611cc3565b6001600360008473ffffffffffffffffffffffffffffffffffffffff1673ffffffffffffffffffffffffffffffffffffffff1681526020019081526020016000206000828254611fd49190612e84565b92505081905550816002600083815260200190815260200160002060006101000a81548173ffffffffffffffffffffffffffffffffffffffff021916908373ffffffffffffffffffffffffffffffffffffffff160217905550808273ffffffffffffffffffffffffffffffffffffffff16600073ffffffffffffffffffffffffffffffffffffffff167fddf252ad1be2c89b69c2b068fc378daa952ba7f163c4a11628f55a4df523b3ef60405160405180910390a461209560008383611cc8565b5050565b6000808273ffffffffffffffffffffffffffffffffffffffff163b119050919050565b8280546120c890612867565b90600052602060002090601f0160209004810192826120ea5760008555612131565b82601f1061210357803560ff1916838001178555612131565b82800160010185558215612131579182015b82811115612130578235825591602001919060010190612115565b5b50905061213e9190612142565b5090565b5b8082111561215b576000816000905550600101612143565b5090565b60008115159050919050565b6121748161215f565b82525050565b600060208201905061218f600083018461216b565b92915050565b6000604051905090565b600080fd5b600080fd5b60007fffffffff0000000000000000000000000000000000000000000000000000000082169050919050565b6121de816121a9565b81146121e957600080fd5b50565b6000813590506121fb816121d5565b92915050565b6000602082840312156122175761221661219f565b5b6000612225848285016121ec565b91505092915050565b600081519050919050565b600082825260208201905092915050565b60005b8381101561226857808201518184015260208101905061224d565b83811115612277576000848401525b50505050565b6000601f19601f8301169050919050565b60006122998261222e565b6122a38185612239565b93506122b381856020860161224a565b6122bc8161227d565b840191505092915050565b600060208201905081810360008301526122e1818461228e565b905092915050565b6000819050919050565b6122fc816122e9565b811461230757600080fd5b50565b600081359050612319816122f3565b92915050565b6000602082840312156123355761233461219f565b5b60006123438482850161230a565b91505092915050565b600073ffffffffffffffffffffffffffffffffffffffff82169050919050565b60006123778261234c565b9050919050565b6123878161236c565b82525050565b60006020820190506123a2600083018461237e565b92915050565b6123b18161236c565b81146123bc57600080fd5b50565b6000813590506123ce816123a8565b92915050565b600080604083850312156123eb576123ea61219f565b5b60006123f9858286016123bf565b925050602061240a8582860161230a565b9150509250929050565b61241d816122e9565b82525050565b60006020820190506124386000830184612414565b92915050565b6124478161215f565b811461245257600080fd5b50565b6000813590506124648161243e565b92915050565b6000602082840312156124805761247f61219f565b5b600061248e84828501612455565b91505092915050565b6000806000606084860312156124b0576124af61219f565b5b60006124be868287016123bf565b93505060206124cf868287016123bf565b92505060406124e08682870161230a565b9150509250925092565b600060208284031215612500576124ff61219f565b5b600061250e848285016123bf565b91505092915050565b60006125228261234c565b9050919050565b61253281612517565b82525050565b600060208201905061254d6000830184612529565b92915050565b600080fd5b600080fd5b600080fd5b60008083601f84011261257857612577612553565b5b8235905067ffffffffffffffff81111561259557612594612558565b5b6020830191508360018202830111156125b1576125b061255d565b5b9250929050565b600080602083850312156125cf576125ce61219f565b5b600083013567ffffffffffffffff8111156125ed576125ec6121a4565b5b6125f985828601612562565b92509250509250929050565b6000806040838503121561261c5761261b61219f565b5b600061262a858286016123bf565b925050602061263b85828601612455565b9150509250929050565b600080fd5b7f4e487b7100000000000000000000000000000000000000000000000000000000600052604160045260246000fd5b6126828261227d565b810181811067ffffffffffffffff821117156126a1576126a061264a565b5b80604052505050565b60006126b4612195565b90506126c08282612679565b919050565b600067ffffffffffffffff8211156126e0576126df61264a565b5b6126e98261227d565b9050602081019050919050565b82818337600083830152505050565b6000612718612713846126c5565b6126aa565b90508281526020810184848401111561273457612733612645565b5b61273f8482856126f6565b509392505050565b600082601f83011261275c5761275b612553565b5b813561276c848260208601612705565b91505092915050565b6000806000806080858703121561278f5761278e61219f565b5b600061279d878288016123bf565b94505060206127ae878288016123bf565b93505060406127bf8782880161230a565b925050606085013567ffffffffffffffff8111156127e0576127df6121a4565b5b6127ec87828801612747565b91505092959194509250565b6000806040838503121561280f5761280e61219f565b5b600061281d858286016123bf565b925050602061282e858286016123bf565b9150509250929050565b7f4e487b7100000000000000000000000000000000000000000000000000000000600052602260045260246000fd5b6000600282049050600182168061287f57607f821691505b6020821081141561289357612892612838565b5b50919050565b7f4552433732313a20617070726f76656420717565727920666f72206e6f6e657860008201527f697374656e7420746f6b656e0000000000000000000000000000000000000000602082015250565b60006128f5602c83612239565b915061290082612899565b604082019050919050565b60006020820190508181036000830152612924816128e8565b9050919050565b7f4552433732313a20617070726f76616c20746f2063757272656e74206f776e6560008201527f7200000000000000000000000000000000000000000000000000000000000000602082015250565b6000612987602183612239565b91506129928261292b565b604082019050919050565b600060208201905081810360008301526129b68161297a565b9050919050565b7f4552433732313a20617070726f76652063616c6c6572206973206e6f74206f7760008201527f6e6572206e6f7220617070726f76656420666f7220616c6c0000000000000000602082015250565b6000612a19603883612239565b9150612a24826129bd565b604082019050919050565b60006020820190508181036000830152612a4881612a0c565b9050919050565b7f4f776e61626c653a2063616c6c6572206973206e6f7420746865206f776e6572600082015250565b6000612a85602083612239565b9150612a9082612a4f565b602082019050919050565b60006020820190508181036000830152612ab481612a78565b9050919050565b7f4552433732313a207472616e736665722063616c6c6572206973206e6f74206f60008201527f776e6572206e6f7220617070726f766564000000000000000000000000000000602082015250565b6000612b17603183612239565b9150612b2282612abb565b604082019050919050565b60006020820190508181036000830152612b4681612b0a565b9050919050565b600081905092915050565b50565b6000612b68600083612b4d565b9150612b7382612b58565b600082019050919050565b6000612b8982612b5b565b9150819050919050565b7f726574697261722066616c6c69646f0000000000000000000000000000000000600082015250565b6000612bc9600f83612239565b9150612bd482612b93565b602082019050919050565b60006020820190508181036000830152612bf881612bbc565b9050919050565b7f4552433732313a206f776e657220717565727920666f72206e6f6e657869737460008201527f656e7420746f6b656e0000000000000000000000000000000000000000000000602082015250565b6000612c5b602983612239565b9150612c6682612bff565b604082019050919050565b60006020820190508181036000830152612c8a81612c4e565b9050919050565b7f4552433732313a2062616c616e636520717565727920666f7220746865207a6560008201527f726f206164647265737300000000000000000000000000000000000000000000602082015250565b6000612ced602a83612239565b9150612cf882612c91565b604082019050919050565b60006020820190508181036000830152612d1c81612ce0565b9050919050565b7f6d696e74656f206e6f20686162696c6974616461000000000000000000000000600082015250565b6000612d59601483612239565b9150612d6482612d23565b602082019050919050565b60006020820190508181036000830152612d8881612d4c565b9050919050565b7f4e487b7100000000000000000000000000000000000000000000000000000000600052601160045260246000fd5b6000612dc9826122e9565b9150612dd4836122e9565b9250817fffffffffffffffffffffffffffffffffffffffffffffffffffffffffffffffff0483118215151615612e0d57612e0c612d8f565b5b828202905092915050565b7f76616c6f72206465206d696e74656f20696e636f72726563746f000000000000600082015250565b6000612e4e601a83612239565b9150612e5982612e18565b602082019050919050565b60006020820190508181036000830152612e7d81612e41565b9050919050565b6000612e8f826122e9565b9150612e9a836122e9565b9250827fffffffffffffffffffffffffffffffffffffffffffffffffffffffffffffffff03821115612ecf57612ece612d8f565b5b828201905092915050565b7f61676f7461646f00000000000000000000000000000000000000000000000000600082015250565b6000612f10600783612239565b9150612f1b82612eda565b602082019050919050565b60006020820190508181036000830152612f3f81612f03565b9050919050565b7f65786365646572746520646520206c612062696c6c6574657261206d6178696d60008201527f6100000000000000000000000000000000000000000000000000000000000000602082015250565b6000612fa2602183612239565b9150612fad82612f46565b604082019050919050565b60006020820190508181036000830152612fd181612f95565b9050919050565b6000612fe3826122e9565b91507fffffffffffffffffffffffffffffffffffffffffffffffffffffffffffffffff82141561301657613015612d8f565b5b600182019050919050565b7f6c61206669636861206e6f206578697374652100000000000000000000000000600082015250565b6000613057601383612239565b915061306282613021565b602082019050919050565b600060208201905081810360008301526130868161304a565b9050919050565b600081905092915050565b60008190508160005260206000209050919050565b600081546130ba81612867565b6130c4818661308d565b945060018216600081146130df57600181146130f057613123565b60ff19831686528186019350613123565b6130f985613098565b60005b8381101561311b578154818901526001820191506020810190506130fc565b838801955050505b50505092915050565b60006131378261222e565b613141818561308d565b935061315181856020860161224a565b80840191505092915050565b7f2e6a736f6e000000000000000000000000000000000000000000000000000000600082015250565b600061319360058361308d565b915061319e8261315d565b600582019050919050565b60006131b582856130ad565b91506131c1828461312c565b91506131cc82613186565b91508190509392505050565b7f4f776e61626c653a206e6577206f776e657220697320746865207a65726f206160008201527f6464726573730000000000000000000000000000000000000000000000000000602082015250565b6000613234602683612239565b915061323f826131d8565b604082019050919050565b6000602082019050818103600083015261326381613227565b9050919050565b7f4552433732313a206f70657261746f7220717565727920666f72206e6f6e657860008201527f697374656e7420746f6b656e0000000000000000000000000000000000000000602082015250565b60006132c6602c83612239565b91506132d18261326a565b604082019050919050565b600060208201905081810360008301526132f5816132b9565b9050919050565b7f4552433732313a207472616e736665722066726f6d20696e636f72726563742060008201527f6f776e6572000000000000000000000000000000000000000000000000000000602082015250565b6000613358602583612239565b9150613363826132fc565b604082019050919050565b600060208201905081810360008301526133878161334b565b9050919050565b7f4552433732313a207472616e7366657220746f20746865207a65726f2061646460008201527f7265737300000000000000000000000000000000000000000000000000000000602082015250565b60006133ea602483612239565b91506133f58261338e565b604082019050919050565b60006020820190508181036000830152613419816133dd565b9050919050565b600061342b826122e9565b9150613436836122e9565b92508282101561344957613448612d8f565b5b828203905092915050565b7f4552433732313a20617070726f766520746f2063616c6c657200000000000000600082015250565b600061348a601983612239565b915061349582613454565b602082019050919050565b600060208201905081810360008301526134b98161347d565b9050919050565b7f4552433732313a207472616e7366657220746f206e6f6e20455243373231526560008201527f63656976657220696d706c656d656e7465720000000000000000000000000000602082015250565b600061351c603283612239565b9150613527826134c0565b604082019050919050565b6000602082019050818103600083015261354b8161350f565b9050919050565b7f4e487b7100000000000000000000000000000000000000000000000000000000600052601260045260246000fd5b600061358c826122e9565b9150613597836122e9565b9250826135a7576135a6613552565b5b828204905092915050565b60006135bd826122e9565b91506135c8836122e9565b9250826135d8576135d7613552565b5b828206905092915050565b7f4e487b7100000000000000000000000000000000000000000000000000000000600052603260045260246000fd5b600081519050919050565b600082825260208201905092915050565b600061363982613612565b613643818561361d565b935061365381856020860161224a565b61365c8161227d565b840191505092915050565b600060808201905061367c600083018761237e565b613689602083018661237e565b6136966040830185612414565b81810360608301526136a8818461362e565b905095945050505050565b6000815190506136c2816121d5565b92915050565b6000602082840312156136de576136dd61219f565b5b60006136ec848285016136b3565b91505092915050565b7f4552433732313a206d696e7420746f20746865207a65726f2061646472657373600082015250565b600061372b602083612239565b9150613736826136f5565b602082019050919050565b6000602082019050818103600083015261375a8161371e565b9050919050565b7f4552433732313a20746f6b656e20616c7265616479206d696e74656400000000600082015250565b6000613797601c83612239565b91506137a282613761565b602082019050919050565b600060208201905081810360008301526137c68161378a565b905091905056fea2646970667358221220f910cda436bcf10ec12b763543f442e71639c42cf8765f782a5faada22eee28264736f6c63430008090033",
    "linkReferences": {},
    "deployedLinkReferences": {}
}